:020000040800F2
:10000000A0100020C90100080B2A000801240008E4
:10001000092A00080F0300084749000800000000F3
:10002000000000000000000000000000672E000833
:100030001D030008000000004B2E0008692E000878
:10004000E3010008E3010008E3010008E301000800
:10005000E3010008E3010008E3010008E3010008F0
:10006000E3010008E3010008E3010008E3010008E0
:10007000E3010008E3010008E3010008E3010008D0
:10008000E3010008E3010008E3010008E3010008C0
:10009000D1480008E3010008E3010008E30100087B
:1000A000E3010008E3010008E3010008E3010008A0
:1000B000E52E0008E3010008E3010008E301000861
:1000C000E3010008E3010008E3010008E301000880
:1000D000E3010008E3010008E3010008E301000870
:1000E000E3010008E3010008E301000800F002F862
:1000F00000F05AF80AA090E8000C82448344AAF168
:100100000107DA4501D100F04FF8AFF2090EBAE865
:100110000F0013F0010F18BFFB1A43F0010318473B
:10012000DC490000FC4900000A444FF0000C10F8C4
:10013000013B13F0070408BF10F8014B1D1108BF65
:1001400010F8015B641E05D010F8016B641E01F805
:10015000016BF9D113F0080F1EBF10F8014BAD1C55
:100160000C1B09D16D1E58BF01F801CBFAD505E073
:1001700014F8016B01F8016B6D1EF9D59142D6D3CD
:10018000704700000023002400250026103A28BFF5
:1001900078C1FBD8520728BF30C148BF0B607047F9
:1001A0001FB51FBD10B510BD00F077F81146FFF761
:1001B000F7FF04F0D9FB00F095F803B4FFF7F2FF66
:1001C00003BC00F09DF8000009488047094800473B
:1001D000FEE7FEE7FEE7FEE7FEE7FEE7FEE7FEE7F7
:1001E000FEE7FEE704480549054A064B7047000054
:1001F000E32E0008ED000008A00A0020A010002057
:10020000A00C0020A00C002010B5431C02E010F848
:10021000011B71B18107FAD14FF0013202C88C1A6B
:100220008C4314EAC211F9D0C01A0A0603D0C01ECA
:1002300010BDC01A10BD0A0401D0801E10BD0902F5
:10024000FCD0401E10BD4FF0000200B5134694468E
:100250009646203922BFA0E80C50A0E80C50B1F11E
:100260002001BFF4F7AF090728BFA0E80C5048BF32
:100270000CC05DF804EB890028BF40F8042B08BFD0
:10028000704748BF20F8022B11F0804F18BF00F8CC
:10029000012B7047704770477047754600F02CF887
:1002A000AE4605006946534620F00700854618B063
:1002B00020B5FFF797FFBDE820404FF000064FF054
:1002C00000074FF000084FF0000B21F00701AC468B
:1002D000ACE8C009ACE8C009ACE8C009ACE8C009AA
:1002E0008D46704710B50446AFF300802046BDE848
:1002F0001040FFF762BF0000004870473C0A002032
:1003000001491820ABBEFEE7260002007047FEE759
:10031000002070470020704700207047704772B679
:10032000FEE7000010B50F4C00224FF400512046AC
:1003300000F08DF901221103204600F088F9012216
:100340000421204600F083F901220221204600F01A
:100350007EF9BDE8104000224FF40041024800F051
:1003600076B90000000C0140000801402DE9F04181
:10037000184E00220421304600F069F9DFF8588059
:100380004FF4004700223946404600F060F9124C15
:100390000834206801220006050C3946404600F06A
:1003A00056F900223946404600F051F920680122F2
:1003B000C4B22C433946404600F049F901220421D9
:1003C000304600F044F9204604F06DFB2046BDE8BD
:1003D000F0810000000C0140000801402DE9F041CF
:1003E000154F4FF4805400222146384600F02FF973
:1003F00001222146384600F02AF94FF40058002225
:100400004146384600F023F90C4D00244FF40046D5
:1004100001223146284600F01AF9002231462846CA
:1004200000F015F9641C022CF2DB41463846BDE8A9
:10043000F041012200F00BB9000C0140000801401E
:1004400070B5044600F008F90546601C02D0044867
:100450000078044400F000F9401BA042FAD370BDBC
:100460000C0000202DE9F84FDFF8B8910024A9F125
:10047000040B23460F2709F1040AABF1040EC9E06F
:100480000125A5402A40AA427DD1674ED1F804C07B
:10049000ACEB0608B44532D014DCBCF1030F3AD003
:1004A00009DCBCF1000F2AD0BCF1010F1CD0BCF15B
:1004B000020F31D11DE0BCF1110F17D0BCF1120FAA
:1004C0002AD119E0B8F5881F19D006DCB8F5803FAD
:1004D00015D0B8F5801F1FD111E0B8F5001F0ED060
:1004E000B8F5041F18D10AE0CB6815E0CB681B1DD6
:1004F00012E0CB6808330FE0CB680C330CE08B685C
:100500002BB1012B4FF0080303D0456104E0042315
:1005100002E0056100E00023FF2A01D8064601E061
:1005200000F104064FEA840501D9A5F12005D6F8AB
:10053000008007FA05FC28EA0C0803FA05F548EAEA
:100540000508C6F800804D68ED0062D5374DAE69EC
:1005500046F00106AE61AD6924F0030605F0010521
:100560000095334D06EB050CDCF80850A607360F56
:1005700007FA06F825EA0805DFF8B880404503D1F8
:100580004FF0000817E044E0DFF8AC80404502D1AE
:100590004FF001080FE0DFF8A480404502D14FF092
:1005A000020808E0DFF89880404502D14FF00308C8
:1005B00001E04FF0040808FA06F848EA0508CCF80C
:1005C00008804D68D9F80060ED024D4601D516430C
:1005D00000E096432E604D68DAF80060AD025546A3
:1005E00001D5164300E096432E604D68DBF80060AD
:1005F000AD035D4601D5164300E096432E604D687D
:10060000DEF80060ED03754601D5164300E0964321
:100610002E60641C0D682A46E5407FF431AFBDE8CA
:10062000F88F000008040140000011100010024083
:100630000000014000080140000C01400010014092
:10064000001401408068084000D0012070470AB1C2
:10065000016170470904FBE70148806870470000AA
:100660000C00002070B5040025D094F83D00002552
:1006700020B984F83C50204600F050F9242084F83A
:100680003D002068016821F00101016020680168D7
:1006900041F4004101602068016821F400410160DB
:1006A00000F0B4FF4D4A6168914201D84C4900E026
:1006B0004C49884201D2012070BD4B492368B0FBF0
:1006C000F1F15E6826F03F060E435E606368934278
:1006D00006D94FF4967359434FF47A73B1FBF3F193
:1006E0002368491C1E6A26F03F063143196261687F
:1006F000914210D84900401EB0FBF1F2521CC2F3E7
:100700000B02042A01D2042022E0B0FBF1F0401CCD
:10071000C0F30B001CE0A268F2B301EBC10303EBD2
:100720000116431EB3FBF6F35B1C43F480431B0529
:1007300049D092B301EBC10202EB0111401EB0FBA4
:10074000F1F0401CC0F30B0040F4804040F4004046
:100750002168CA694CF6FF739A431043C861D4E913
:10076000071001432068026822F0C00211430160B3
:10077000D4E9030101432068826848F2FF339A43B9
:1007800011438160D4E9050108432168CA6822F059
:10079000FF021043C86001E00EE016E02068016827
:1007A00041F0010101602564202084F83D002563AB
:1007B00084F83E50002070BD01EB4106431EB3FBA0
:1007C000F6F35B1CB3E70120C2E701EB4101401ED9
:1007D000B0FBF1F0401CC0F30B00B7E7A0860100AE
:1007E00080841E0000093D0040420F002DE9FF4FAC
:1007F00083B09A46DDE9119793460446DDF84080C0
:10080000FFF72AFF054694F83D0020287FD11923E1
:10081000012240492046009501F08AFE002876D149
:1008200094F83C00012872D0012084F83C00206834
:100830000168C90703D1016841F001010160206826
:10084000016821F400610160212084F83D0040200E
:1008500084F83E0000262664C4F82480A4F82A9078
:10086000608D20852C48E062CDE9007553465A46DC
:100870002046049901F0DCFD70B930E02A46394683
:10088000204601F0FBFE58B1206C042804D12068FA
:10089000016841F400710160012007B0BDE8F08FEC
:1008A000606A216800780861606A401C6062218D7E
:1008B000491E89B22185628D521E62852268536964
:1008C000DB435B070BD469B100781061606A401CA0
:1008D0006062208D401E2085608D401E6085208DC9
:1008E0000028CBD12A463946204601F0F5FD0028E4
:1008F000CAD154F83D0B016841F400710160202019
:1009000004F81E09E67766770020C6E7FFE70220B5
:10091000C3E70000020010000000FFFF10B586B022
:1009200000210091019102910391006813498842CE
:1009300022D1134CA06940F00800A061A06969466B
:1009400000F0080004904FF44070009012200190D5
:10095000032003900B48FFF785FD0B48416841F0E9
:10096000E06141F002014160E06940F40010E061A3
:10097000E06900F40010049006B010BD005400407F
:1009800000100240000C0140000001400248816854
:1009900002781144816070470C000020074810B5B0
:1009A000016841F010010160032000F075F80F208C
:1009B00000F006F800F024F8002010BD00200240EE
:1009C00070B50D4D04464FF47A712878B1FBF0F004
:1009D0000A490968B1FBF0F000F0EEFF48B9102CAD
:1009E00007D200222146501E00F036F800206C602D
:1009F00070BD012070BD00000C0000201800002018
:100A00000C4808B5816941F001018161816901F0FB
:100A100001010091C16941F08051C161C06900F0DC
:100A2000805000900448416821F0E06141F000717D
:100A3000416008BD0010024000000140002809DBB1
:100A400000F01F02012191404009800000F1E020E8
:100A5000C0F8001170470000F0B40E4B1B680C4644
:100A6000C3F30223C3F10705042D00D90425191D82
:100A7000072901D2002300E0DB1E012606FA05F15A
:100A8000491E214099409E40761E16403143F0BCDD
:100A900003F05ABF0CED00E0064900F007020868B9
:100AA0004FF6FF03184040EA0220034A1043086053
:100AB000704700000CED00E00000FA0510B50C06D0
:100AC00007D501F0070101EB810100EBC1001030F7
:100AD00005E001EB810100EBC10000F5A87099B2BF
:100AE00032B1012202730181190C4181002010BD35
:100AF00000220273C180F9E7704701EB810200EB2D
:100B0000C202D0F8D402526A02F0BFBE01EB8102E9
:100B100000EBC202D0F8D402D2F8642102F018BF70
:100B200070B504460B0601F0070000EB800104EBF2
:100B3000C1014FF001024FF0000502D54A74103197
:100B400003E081F8515101F5A871087094F8900202
:100B5000012808D084F89022206803F04DFB84F827
:100B60009052002070BD022070BD70B5044601F0A7
:100B70000F002279904201D9012070BD0B0601F0CF
:100B8000070000EB800104EBC1014FF001024FF0C0
:100B9000000502D54A74103103E081F8515101F586
:100BA000A8718D70087094F89002012808D084F81C
:100BB0009022206803F0BDFB84F89052002070BDA5
:100BC000022070BD2DE9F05F04685FEA424C0B78AB
:100BD0008D69B4F850C04FF000064BF68F7948F29B
:100BE000800A48F68F7B48F2C00E4FF480672AD502
:100BF0004FF0020808EBC308C44407EB4C07E45B62
:100C0000C4F30904A54203D32D1B8D6101D00BE071
:100C10008E61066836F8235005EA090585F400550B
:100C200045EA0A0526F82350520609D50D780368CF
:100C300033F8252002EA0B0242EA0E0223F82520AF
:100C400084B30A8929E04FF0060808EBC308C444BE
:100C500007EB4C07E45BC4F30904A54203D32D1B47
:100C60008D6101D00BE08E61066836F8235005EAED
:100C7000090585F4005545EA0A0526F82350520671
:100C800009D40B78056835F8232002EA0B0242EA02
:100C90000E0225F823202CB14A89496900682346B1
:100CA00003F020FE2046BDE8F09F2DE9F05F0546E9
:100CB00000680C465FEA426C16468B692278B0F8F1
:100CC00050C048F68F774CF280094FF4004B4FF636
:100CD000FF7E4FF4806A4FF0000172D54FF002089A
:100CE00008EBC208E0440AEB480C30F80C00C0F3F3
:100CF0000900834211D91B1AA3610FD0730407D5D1
:100D00002E6836F822303B4043EA090326F82230A9
:100D100094F82420012A47D052E1A161607810B1F3
:100D2000012813D01AE02868B0F85030184400EBBE
:100D30000210B0F80424C2F30902A0F80424B0F8A9
:100D4000042442F40042A0F8042407E02868B0F824
:100D50005030184400EB0210A0F8041462782868A0
:100D600012B1012A11D018E0B0F8501008442178CF
:100D700000EB0110B0F80C14C1F30901A0F80C1439
:100D8000B0F80C1441F4004105E0B0F850201044D4
:100D9000227800EB0210A0F80C1421782846FFF707
:100DA000ACFE700472D40BE1626902446261E269D4
:100DB0000244E2612369226A9A4203D31846111A57
:100DC00004E03EE084F824100AB110462162617804
:100DD00011B1012929D031E02968B1F8502011441E
:100DE000227801EB0211B1F80424C2F30902A1F840
:100DF000042401F204413E2807D94209C30600D168
:100E0000521E0B884BEA822207E048B14208C30712
:100E100000D0521C0B880EEA822213430B800DE097
:100E20000A8842F400420A8008E02968B1F850209C
:100E30001144227801EB0211A1F8040483B2228943
:100E4000BAE04FF0060808EBC208E0440AEB480C91
:100E500030F80C00C0F30900834211D31B1AA361C0
:100E60000FD0730407D42E6836F822303B4043EA93
:100E7000090326F8223094F82420012A51D09FE05B
:100E8000A161607818B1012814D01BE03FE0286808
:100E9000B0F85030184400EB0210B0F80424C2F34C
:100EA0000902A0F80424B0F8042442F40042A0F897
:100EB000042407E02868B0F85030184400EB021012
:100EC000A0F804146278286812B1012A11D018E041
:100ED000B0F850100844217800EB0110B0F80C1461
:100EE000C1F30901A0F80C14B0F80C1441F400414E
:100EF00005E0B0F850201044227800EB0210A0F872
:100F00000C1421782846FFF7F8FD700458D4227895
:100F1000296831F82200384040EA090021F822000F
:100F20004EE0626902446261E2690244E26123695F
:100F3000226A9A4203D31846111A216204E00AB1C8
:100F40001046216284F824106278296812B1012ABF
:100F500028D02FE0B1F850201144227801EB021183
:100F6000B1F80C24C2F30902A1F80C2401F20C41DF
:100F70003E2807D94209C30600D1521E0B884BEA0E
:100F8000822207E048B14208C30700D0521C0B88F8
:100F90000EEA822213430B800CE00A8842F40042DE
:100FA0000A8007E0B1F850201144227801EB0211C9
:100FB000A1F80C04628983B26169286803F0B0FC6F
:100FC0002278296831F8220048F6BF73184080F073
:100FD000300048F28003184321F822000020BDE8C9
:100FE000F09F2DE9F04104460F0601F0070000EBE9
:100FF000800104EBC1014FF001064FF0000502D55E
:101000004E74103103E081F8515101F5A871022BA3
:1010100008700A61CB7000D10D7194F8900201281C
:1010200009D084F89062206802F096FF284684F880
:101030009052BDE8F0810220FBE710B501F00704F3
:1010400004EB840100EBC101C1E959230022C1F87E
:101050006C2181F8512181F85041006801F5A87197
:1010600003F0BCF9002010BD70B504460D4601F038
:1010700007002179884201D9012070BD29064FF06F
:1010800000064FF0010206D500EB800104EBC10120
:101090004A74103107E005EB850104EBC10181F8CA
:1010A000516101F5A8718A70087094F890020128C6
:1010B00007D084F89022206803F077F9680702D0FF
:1010C00006E0022070BD04F52671206803F02FF9B8
:1010D00084F89062002070BD10B501F0070404EBA5
:1010E000840100EBC101C1E90923012281F8342008
:1010F0000B630023CB624A7401F8104F006803F0C1
:101100006DF9002010BD00001FB50446006803F013
:10111000E5FB010403D5204601F0C4FC1FBD4105D9
:101120000DD5206830F8441F21F4806101802046ED
:1011300000F000F90021204600F017F91FBD41041E
:1011400005D5206830F8441F21F4804174E0810403
:1011500005D5206830F8441F21F400516CE0C1042B
:1011600014D5206830F8401F21F004010180206868
:1011700030F8401F21F008010180204600F0EDF812
:10118000206830F8441F21F4805155E0010540D516
:10119000D4F800200020694632F8203021F81030C1
:1011A000401CC0B20828F7D332F8400F40F00100CD
:1011B0001080206830F8402F22F001020280206861
:1011C000B0F844205205FBD530F8442F22F4806259
:1011D00002800020236831F8102023F82020401CD2
:1011E000C0B20828F6D3206830F8401F41F008014B
:1011F0000180206830F8441F21F4006101802068DC
:1012000030F8401F41F004010180204600F0E0F872
:101210001FBD810509D5206830F8441F21F40071F5
:101220000180204600F09DF81FBDC005FCD5206858
:1012300030F8441F21F4807101801FBD2DE9F04179
:10124000040004D094F89102002518B107E00120B1
:10125000BDE8F08184F89052204600F04DF803205C
:1012600084F891026571206803F05AF894E80F0041
:1012700002F0C0FF022698BB0021206803F048FB63
:1012800070BB002001270BE000EB800104EBC101E3
:101290004F740874CD740D624D62401CC0B28D62F3
:1012A00021798142F0D8002012E000BF00EB8001DC
:1012B00004EBC10181F8515181F8500181F853517B
:1012C000C1F86051C1F86451401CC0B2C1F8685106
:1012D00021798142EAD894E80F0003F018F810B1A0
:1012E00084F89162B3E7657384F89172206803F023
:1012F0000CF80020ACE7000008B500680B498842F4
:1013000012D10B48C16941F40001C161C0690022DA
:1013100000F40000009011461420FFF79DFBBDE88B
:1013200008401420FFF78ABB08BD0000005C0040A5
:101330000010024070B5044680790125022801D0D2
:10134000FEF7EDFF2946D4F8D40202F0DDFBD4F815
:10135000D402BDE8704002F099BBD0F8D40202F08C
:10136000BDBBD0F8D40202F0C3BB10B5044690F860
:10137000900201280AD0012084F89002617320684D
:1013800003F0C8FA002084F8900210BD022010BDBE
:10139000D0F8D42200F52671104602F0C1BB10B57A
:1013A000044690F89002012810D0012084F89002A1
:1013B000206803F084FA01212046FFF79DFB206896
:1013C00002F0A1FF002084F8900210BD022010BDA1
:1013D00010B50446D0F8D40202F0E1FBA07A002850
:1013E00004D00348016841F00601016010BD00000F
:1013F00010ED00E02DE9F84305460078354CC007B4
:1014000054D0E0690026C00008D4E06940F0805064
:10141000E061E069012600F0805000902E480168EC
:10142000C90512D40168804641F480710160FFF75C
:1014300013F9074605E000BFFFF70EF9C01B64284B
:1014400023D8D8F80000C005F6D5206A10F4407003
:1014500021D0A98801F4407181421CD0206A1F4923
:10146000012220F440700A6000220A602062C00756
:1014700011D0FFF7F1F8074641F2883808E000BFC5
:10148000FFF7EAF8C11B414502D90320BDE8F88304
:10149000206A8007F4D5206A696820F44070084308
:1014A00020621EB1E06920F08050E061287880075A
:1014B00005D56068A96820F440400843606028783A
:1014C000C00605D56068E96820F4800008436060C4
:1014D0000020DBE700100240007000404004424260
:1014E0002DE9F0470F46050061D0434E306800F00B
:1014F0000700B84209D2306820F007003843306056
:10150000306800F00700B84251D128683B4C810791
:1015100012D5400703D5606840F4E0606060287829
:10152000000703D5606840F4605060606068A96897
:1015300020F0F000084360602878C00728D0686871
:10154000012810D02168022810D0890700292EDA3E
:10155000616821F0030101436160FFF77DF8804677
:1015600041F288390DE021688903EFE78901EDE751
:10157000FFF772F8A0EB0801494502D90320BDE846
:10158000F0876068696800F00C00B0EB810FEFD164
:10159000306800F00700B8420BD9306820F007002F
:1015A00038433060306800F00700B84201D00120B5
:1015B000E5E72878400705D56068E96820F4E06031
:1015C000084360602878000706D56068296920F420
:1015D000605040EAC100606000F038F86168084A75
:1015E000C1F30311515CC840064908600648006811
:1015F000FFF7E6F90020C2E7002002400010024099
:10160000E24A0008180000201000002004480549A4
:1016100000684968044AC1F30221515CC840704720
:101620001800002000100240F24A00080448054952
:1016300000684968044AC1F3C221515CC840704740
:101640001800002000100240F24A00080E4A5168BB
:101650000E4801F00C03042B11D0082B0FD10C48BD
:10166000C1F38343C903C05C0AD55168084AC1F37A
:101670004041921E515C054A5043B0FBF1F0704767
:1016800004494843704700000010024000127A00ED
:10169000D24A000800093D002DE9F84F040070D03F
:1016A0002078C04DC00749D06868C0F38100012888
:1016B00007D06868C0F38100022809D16868C003B8
:1016C00006D52868800339D560680028E7D035E062
:1016D0006068B0F5803F0BD010B1B0F5A02F11D0ED
:1016E000286820F480302860286820F4802002E0F8
:1016F000286840F480302860606890B1FEF7ACFF45
:1017000006460AE0286840F480202860F0E700BF21
:10171000FEF7A2FF801B642873D828688003F7D5E2
:101720000CE0FEF799FF064605E000BFFEF794FFC8
:10173000801B6428F0D828688003F7D420789A4E5C
:1017400080074FF001094FF0000839D5686810F0A4
:101750000C0F07D06868C0F38100022809D16868BF
:10176000C00306D42868800714D52069012808D151
:1017700010E02069B0B1C6F80090FEF76DFF074693
:1017800005E00AE1FEF768FFC01B0228C4D82868FC
:101790008007F7D52868616920F0F80040EAC100A9
:1017A00028600DE0C6F80080FEF756FF074604E00B
:1017B000FEF752FFC01B022823D828688007F7D401
:1017C000207800072CD57948A169D9B1C0F80090DC
:1017D000FEF742FF074604E0FEF73EFFC01B02286B
:1017E0000FD8686A8007F7D571484FF4FA5100683E
:1017F000B0FBF1F0009000BF0098411E0091FAD2BA
:101800000EE080E0C0F80080FEF726FF074604E007
:10181000FEF722FFC01B022875D8686A8007F7D43C
:101820002078400760D5E8690027C00008D4E8693F
:1018300040F08050E861E869012700F08050009096
:101840005C480168C90513D40168834641F480717E
:101850000160FEF701FF824606E000BFFEF7FCFED6
:10186000A0EB0A0064284ED8DBF80000C005F5D5CF
:10187000E06801280AD008B1052813D0286A20F0B2
:1018800001002862286A20F0040002E0286A40F083
:1018900001002862E06841F2883B98B1FEF7DCFE67
:1018A00082460BE0286A40F004002862EEE700BFA1
:1018B000FEF7D2FEA0EB0A0159455AD8286A8007E4
:1018C000F6D50CE0FEF7C8FE824605E0FEF7C4FE42
:1018D000A0EB0A0159454CD8286A8007F6D41FB1FD
:1018E000E86920F08050E861E06988B36968C1F375
:1018F0008101022944D00228C6F8608004D0FEF796
:10190000ABFE044638E034E0FEF7A6FE074604E0EE
:10191000FEF7A2FEC01B02282BD828688001F7D44E
:10192000206AB0F5803F05D16868A16820F40030D6
:1019300008436860D4E908010843696821F4741118
:1019400008436860C6F86090FEF786FE044606E02D
:1019500025E000BFFEF780FE001B022809D828689A
:101960008001F7D51BE000BFFEF776FE001B0228C2
:1019700002D90320BDE8F88F28688001F4D40EE076
:101980000128F7D06868226A00F48031914204D1BE
:10199000616A00F47010884201D00120EAE700205B
:1019A000E8E700000010024000004242800442428A
:1019B000180000200070004010B5401EB0F1807F7C
:1019C00001D3012010BD4FF0E02460610F216017AA
:1019D00002F0BAFF0020A06107202061002010BDA6
:1019E0007047704710B590F83C20012A22D00122A0
:1019F00080F83C20CA688C6822F4407222434C680C
:101A000022F4806222430C6822F4006222430C69B3
:101A100022F4805222434C6922F400522243C969C5
:101A2000002322F480420A4301684A6480F83C3073
:101A3000002010BD022010BD70B590F83C20012A96
:101A400026D0012480F83C40022280F83D20036823
:101A50005A689D6822F070060A6832435A600D4B3E
:101A600002689A4208D0B2F1804F05D00A4B9A42E0
:101A700002D00A4B9A4204D1496825F080031943E9
:101A8000916080F83D40002180F83C10084670BD10
:101A9000022070BD002C01400004004000080040FE
:101AA00010B50446022249B104290ED0082913D0EA
:101AB00094F84500012816D0012010BD94F842008A
:101AC0000128F9D184F842200FE094F8430001285E
:101AD000F2D184F8432008E094F844000128EBD1C7
:101AE00084F8442001E084F845200422206801F0B5
:101AF00048FA2068416C41F4004141640B49206878
:101B0000884208D0B0F1804F05D00949884202D000
:101B10000849884204D1816801F00701062903D0F1
:101B2000016841F001010160002010BD002C01405E
:101B3000000400400008004010B5040003D094F8F1
:101B40003D0010B107E0012010BD002084F83C00EA
:101B5000204600F01FF8022084F83D00211D206877
:101B600001F0C6F9012084F8460084F83E0084F8AC
:101B70003F0084F8400084F8410084F8420084F873
:101B8000430084F8440084F8450084F83D000020B8
:101B900010BD000000B585B00021009101910291B7
:101BA00003911D4A01681D48914209D1816941F4A0
:101BB00000618161806900F40060049005B000BD9F
:101BC000B1F1804FFAD1C16941F00101C161C16930
:101BD00001F001010491816941F00801816180698E
:101BE000694600F008000490082000900C48FEF7B9
:101BF00039FC0C48416821F4407141F0E06141F446
:101C000080714160002211461C20FEF725FF1C2038
:101C1000FEF714FFD2E70000002C01400010024044
:101C2000000C01400000014070B5044690F83C00F3
:101C30000025012817D0012684F83C60022084F892
:101C40003D002068826822F0770222F47F428260A1
:101C50000868502838D00DDC20284FD005DC90B320
:101C6000102811D14AE0022070BD302846D040280B
:101C70000AD13BE060282FD070280DD0B0F5805FEE
:101C800003D0B0F5005F12D0012584F83D6000203C
:101C900084F83C00284670BDCB68D1E9012120685A
:101CA00001F07CF92068816841F0770109E0CB6898
:101CB000D1E90121206801F071F92068816841F4BF
:101CC00080418160E1E719E0CA684968206801F055
:101CD00019FA5021206806E0CA684968206801F0B6
:101CE0004FFA6021206801F063F9CEE7CA684968BD
:101CF000206801F007FA40212068F4E722680146D5
:101D00001046F0E70A49884211D101684A6A094938
:101D10004B689A4204D2C0684B681044C01A01E074
:101D20004868101A88604A600878401C087070473C
:101D3000F4010020000000202DE9F041054690F854
:101D40003C0000260C46012810D0012085F83C00FC
:101D500072B1042A1CD0082A2CD00C2A50D001269B
:101D6000002085F83C003046BDE8F0810220FBE70A
:101D7000D4E90012E368286801F0D6F9286881697F
:101D800021F00C01816128688169A26811430FE08C
:101D9000D4E90012E368286801F004FA2868816930
:101DA00021F44061816128688169A26841EA0221C9
:101DB0008161D5E72868D4E9002C277B036A016A92
:101DC00021F480710162C16923F4007321F00301E1
:101DD00041EA0C0121F0F00C39074FF400774CEA8E
:101DE000116107EA02221A43C16102622868C169CF
:101DF00021F00C01C1612868C169A26811432BE080
:101E00002868D4E90021E768036AD0F820C02CF4E0
:101E1000805CC0F820C0D0F81CC023F400532CF420
:101E2000407C4CEA012121F4704C4FF6FF7101EA2D
:101E300007314FF4005741EA0C0107EA02321A4316
:101E4000C16102622868C16921F44061C1612868EA
:101E5000C169A26841EA0221C16181E710B50400AD
:101E600003D094F83D0010B107E0012010BD002020
:101E700084F83C00204600F01EF8022084F83D0063
:101E8000211D206801F034F8012084F8460084F810
:101E90003E0084F83F0084F8400084F8410084F854
:101EA000420084F8430084F8440084F8450084F834
:101EB0003D00002010BD704730B50446002551B1EB
:101EC00004290DD0082910D094F8410094F8452039
:101ED000012811D10EE094F83E0094F84220F7E773
:101EE00094F83F0094F84320F2E794F8400094F807
:101EF0004420EDE7012A01D0012030BD022059B174
:101F0000042912D0082919D084F8410084F845002A
:101F10000C2938D0012534E084F83E0084F84200D2
:101F20002068C26842F0020210E084F83F0084F8A2
:101F300043002068C26842F0040207E084F84000D1
:101F400084F844002068C26842F00802C26001229E
:101F5000206801F009F80E492068884208D0B0F1E5
:101F6000804F05D00B49884202D00B49884204D1EA
:101F7000816801F00701062903D0016841F00101E1
:101F80000160284630BD2068C26842F01002DDE7DB
:101F9000002C014000040040000800402DE9F04101
:101FA00004460068C66805694FF00007A90713D505
:101FB000B10711D5F91E01610120207720688069E1
:101FC0008007204602D0FFF79DFE04E000F0C6F82F
:101FD000204600F058F92777680716D5700714D502
:101FE00021686FF004000861022020772068806972
:101FF00010F4407F204602D0FFF784FE04E000F09A
:10200000ADF8204600F03FF92777280715D53007AF
:1020100013D521686FF0080008610420207720683C
:10202000C0698007204602D0FFF76CFE04E000F094
:1020300095F8204600F027F92777E80616D5F00630
:1020400014D521686FF010000861082020772068FF
:10205000C06910F4407F204602D0FFF753FE04E031
:1020600000F07CF8204600F00EF92777E80708D04A
:10207000F00706D021686FF001000861204600F0EB
:1020800003F9280608D5300606D521686FF08000D0
:1020900008612046FFF7A4FC680608D5700606D53F
:1020A00021686FF040000861204600F0EEF8A806B5
:1020B0000AD5B00608D521686FF0200008612046D7
:1020C000BDE8F041FFF78DBCBDE8F08100B585B0FB
:1020D000002100910191029103911B4B02681B4862
:1020E00002219A4212D1826942F00802826180691B
:1020F000039100F0080004904FF44040CDE9000146
:1021000069461348FEF7AEF905B000BDB2F1804F45
:10211000FAD1826942F0040282618069039100F081
:10212000040004904FF40040CDE9000169460948DD
:10213000FEF798F90848416821F4407141F0E061E8
:1021400041F480714160DFE7002C01400010024043
:10215000000C01400008014000000140704770B5CC
:10216000044690F83C0000260D4601280FD00120BF
:1021700084F83C006AB1042A1DD0082A2FD00C2A0A
:102180003FD00126002084F83C00304670BD02207C
:1021900070BD206800F014FF2068816941F00801DB
:1021A00081612068816921F0040181612068816971
:1021B0002A69114311E0206800F02AFF2068816934
:1021C00041F4006181612068816921F4806181614D
:1021D000206881692A6941EA02218161D2E7206889
:1021E00000F042FF2068C16941F00801C161206828
:1021F000C16921F00401C1612068C1692A691143E4
:1022000011E0206800F05CFF2068C16941F40061C2
:10221000C1612068C16921F48061C1612068C16920
:102220002A6941EA0221C161ACE710B5040003D07C
:1022300094F83D0010B107E0012010BD002084F8A3
:102240003C00204600F01EF8022084F83D00211DCD
:10225000206800F04DFE012084F8460084F83E001E
:1022600084F83F0084F8400084F8410084F842007C
:1022700084F8430084F8440084F8450084F83D0065
:10228000002010BD704770477047704770B504005C
:1022900004D094F84100002510B106E0012070BD83
:1022A00084F84050204600F023F8242084F84100B0
:1022B0002068C16821F40051C160204600F0B4FFDD
:1022C0002068016921F4904101612068416921F091
:1022D0002A0141612068C16841F40051C160656410
:1022E000202084F8410084F842006563002070BD1E
:1022F00030B585B0002400940194029403940068E2
:102300001449884224D11448816941F48041816193
:10231000816901F480410491816941F00401816186
:1023200080690E4D00F0040004904FF4007000909E
:10233000022001900320039069462846FEF792F898
:102340002815CDE90004694628460294FEF78AF86C
:1023500005B030BD003801400010024000080140C7
:102360002DE9F843044690F84100984616460D467C
:10237000202802D00220BDE8F88385B17EB100207C
:102380006064212084F84100FEF766F9A684814646
:10239000E684A0682027B0F5805F02D003E001202A
:1023A000E9E7206910B12E4600250EE000260CE07A
:1023B0008021204600F094FFA8B9C6B116F8010BA1
:1023C00021684860E08C401EE084E08C4B464FF072
:1023D0000002CDF800800028EAD14FF040012046ED
:1023E00000F07EFF40B184F841700320C3E735F868
:1023F000020BC0F30800E3E784F841700020BAE75D
:10240000FEE701684A69D24352050FD46FF4806237
:102410004A61002140F8301F202242738173026913
:1024200042F00402026101730120704700207047EE
:102430002DE9F843044600680D46DDE90897016878
:102440009846164641F4807101604B4600224FF0D9
:1024500001112046009700F06BF848B12068006831
:10246000C00502D54FF4007020640320BDE8F88356
:10247000216805F0FE0008613B464A4615492046A2
:1024800000F09EF888B920684169806900903A465A
:102490004946204600F0F2F848B1206C042804D1E7
:1024A0002068016841F4007101600120DEE7F5B2A7
:1024B000B8F1010F09D02168300A08613A4649464F
:1024C000204600F0DBF80028E7D1206805610020F5
:1024D000CCE700000200010070B516460D46044628
:1024E0001EE02046FFF78DFF08B1012070BD681C7B
:1024F00016D0FEF7B1F8801BA84200D885B9206835
:102500004069C04340070BD5002044F8300F20211C
:102510006173A073216941F0200121612073E4E718
:1025200020684069C0434007DBD4002070BD000034
:102530002DE9F047984617460D460446C1F3074675
:10254000DDF820902AE000BFB8F1FF3F26D0FEF76B
:1025500083F8A0EB0901414502D8B8F1000F1DD165
:102560002068012E16D0806925EA00000004000CC6
:1025700012D00020B84211D1002044F8300F2021A1
:102580006173A073216941F0200121612073012052
:10259000BDE8F0874069E7E70120EBE72068012EFE
:1025A0000AD0806925EA00000004000C06D0002053
:1025B000B842C9D00020EBE74069F3E70120F7E714
:1025C0002DE9F047984616460D4604464FF000099F
:1025D0004FF0200AC1F3074723E020684069C04359
:1025E000400515D42068016841F40071016021683C
:1025F0006FF480604861C4F8309084F83DA084F89E
:102600003E90216C41F00401216484F83C9021E06B
:10261000701C06D0FEF720F8A0EB0800B04203D8EB
:1026200016B1012F1FD021E02068012F15D080693D
:1026300025EA00000004000C18D000BF44F8309FC9
:1026400084F80DA084F80E90216941F020012161E9
:1026500084F80C900120BDE8F087406925EA00006D
:102660000004000CEAD12068406901E0206880691C
:1026700025EA00000004000CAFD1ECE770B5164667
:102680000D4604461EE02046FFF7BBFE08B10120C0
:1026900070BD681C16D0FDF7DFFF801BA84200D874
:1026A00085B920684069C04300060BD5002044F876
:1026B000300F20216173A073216941F02001216155
:1026C0002073E4E720684069C0430006DBD40020A3
:1026D00070BD0000F0B500230A24302537261F46C0
:1026E00011E000BFB4EB107F02D905EB107C01E0D4
:1026F00006EB107C01F813C001EB430C00015B1CDE
:102700008CF80170DBB29342ECD3F0BD70B586B0AB
:10271000002420480094019402940394816941F0BC
:1027200010018161816901F010010491816941F01A
:1027300020018161816901F020010491816941F0EA
:1027400004018161816901F004010491816941F012
:10275000080181618069104E00F0080043F207050E
:102760000490002229463046FDF771FFFF20CDE995
:102770000004694609480294FDF774FE01200095A3
:10278000CDE901040220039069463046FDF76AFE58
:1027900006B070BD00100240000C0140000801406E
:1027A00010B50D4C0B484FF4804120600B48606021
:1027B0000020A060C4E903016061A061E0612062C3
:1027C0002046FDF74FFF08B1FDF7A9FD80202062EC
:1027D00010BD00000054004058010020A0860100F8
:1027E00010B596B000240F94109411941294139481
:1027F0001C2168461494FDF726FD202107A8FDF74B
:1028000022FD2C482A49C0E900144FF6FF71C0E9A7
:102810000241046144618461FFF78EF908B1FDF75C
:102820007EFD4FF480500F900FA92248FFF7FCF96E
:1028300008B1FDF774FD1F48FFF7F7FC08B1FDF77D
:102840006EFD139413A91B481494FFF7F5F808B113
:10285000FDF765FD6020CDE9000402940394049423
:1028600005940422694613480694FFF778FC08B1E2
:10287000FDF755FD082269460E48FFF770FC08B1C8
:10288000FDF74DFD0794089409944FF400500A9405
:10289000CDE90B4007A907480E94FFF7A3F808B14C
:1028A000FDF73DFD0348FFF711FC16B010BD000019
:1028B000002C0140AC01002010B592B000240B9414
:1028C0000C940D940E940F941C2168461094FDF7FF
:1028D000BAFC29480794089409944FF080410A945F
:1028E00001600221C0E901144FF4FA61C0E9031448
:1028F0008461FFF721F908B1FDF711FD4FF4805015
:102900000B900BA91C48FFF78FF908B1FDF707FDE5
:102910001948FFF78AFC08B1FDF701FD1648FFF7DB
:102920009DFA08B1FDF7FBFC0F940FA91248109413
:10293000FFF782F808B1FDF7F2FC6020CDE9000452
:102940000294002269460C480494FFF708FC08B181
:10295000FDF7E5FC0120CDE907400994042207A911
:1029600005480A94FFF7E8F908B1FDF7D8FC0248DA
:10297000FFF7ACFB12B010BDF40100200C4810B5FD
:102980000A4901604FF416514160002181600C2218
:10299000C160C0E904128161C161FFF777FC0028C2
:1029A00003D0BDE81040FDF7BABC10BD00380140AF
:1029B0003C02002010B500220F49104800F03EFFF5
:1029C00008B1FDF7ACFC0E490C4801F00EF908B156
:1029D000FDF7A5FC0B49094800F041FD08B1FDF7E2
:1029E0009EFC064801F056F9002803D0BDE81040CF
:1029F000FDF795BC10BD00001C00002084020020E3
:102A00008400002070000020FEE7FEE710B50446B9
:102A10008022122100F01AFA0A20FDF711FD00228F
:102A20008C21204600F012FA10221221204600F0DC
:102A30000DFA08220C21204600F008FA08223E2157
:102A4000204600F003FAD0224021204600F0FEF993
:102A500080225621204600F0F9F90122112120465A
:102A600000F0F4F90A223B21204600F0EFF916228B
:102A70001721204600F0EAF904221821204600F030
:102A8000E5F902221921204600F0E0F97A221A2104
:102A9000204600F0DBF92046A422BDE81040322198
:102AA00000F0D4B92DE9F84F044640F68F7B48F684
:102AB0000F794FF480684FF0000ABDE1B0F8441080
:102AC00011F00F0539D030F8256031047ED530F88B
:102AD000251001EA0B0141F0800120F8251005EBDB
:102AE000850004EBC00797F85C0107F5A87700287C
:102AF0006DD0F87802286BD03978226832F821003E
:102B000048F68F73184048F2C003184322F821009A
:102B10003978206830F82120B0F8503052047DD543
:102B2000022202EBC1015A1808EB4201415A890501
:102B3000890D009173D03A89DDE0C9062BD4018854
:102B400001EA090141F400410180206804F1100507
:102B5000B0F85030217C022202EBC1015A1808EB78
:102B60004201405AC0F30900E062616A08446062B1
:102B700000212046FDF7C1FF607B00289DD0A86999
:102B800000289AD1607B216840F08000A1F84C00B9
:102B900084F80DA050E1018804F5A8750A0521D537
:102BA000B0F850202B78062101EBC3010A4408EB52
:102BB0004201405A04F52671C0F30903EB61EA882B
:102BC000206801F08FFE2068018802E0AEE06EE030
:102BD0007EE001EA0B0141F0800101802046FEF712
:102BE000D7FB29E10904D5D5018801EA0B0141F0A1
:102BF000800101802068B0F850202B78062101EB7D
:102C0000C3010A4408EB4201405A83059B0DEB6166
:102C100010D0696971B1EA88206801E05FE05DE089
:102C200001F060FEE9696869084468610021204696
:102C3000FDF76CFF216808880205ABD4C0F30130B2
:102C40000328A7D0B1F850000844B0F80C14C1F321
:102C50000901A0F80C142A6900F20C403E2A09D997
:102C60005109D20600D1491E02884FF4004343EABD
:102C7000812109E0B2B15108D20700D0491C028875
:102C80004FF6FF7303EA81210A4302802168088816
:102C90004BF68F72104080F4405048F2800210438F
:102CA0000880C9E0018841F400410180EEE7206816
:102CB000B0F850203B78062101EBC3010A4408EB31
:102CC0004201415A8905890D009118D0FA8812E015
:102CD000324639462046FDF775FF00900FE0062288
:102CE00002EBC1015A1808EB4201415A8905890DCE
:102CF000009104D07A897969009B01F0F3FDF869AD
:102D000000990844F8617969009808447861B869C5
:102D100018B139690098814204D939782046FDF705
:102D2000F5FE03E03946206801F058FB30062ED549
:102D300005EB850004EBC001206830F8252002EA8D
:102D4000090242F4004220F82520C87C10310128F5
:102D50001ED0F0056CD42068B0F850300D780222F7
:102D600002EBC5021A4408EB4202805A8A69C0F39A
:102D70000900824255D9121A8A6154D04A69024424
:102D80004A61CA691044C861206801F027FB53E01A
:102D9000C1F818A0087B524608B3700620D54878C1
:102DA00010B1012812D03AE02068B0F85020104449
:102DB0000A7800EB0210B0F80424C2F30902A0F86C
:102DC0000424B0F8042442F4004206E02068B0F87D
:102DD000503018440B7800EB0310A0F804241EE0D8
:102DE0004B78206813B1012B11D018E0B0F85020B7
:102DF00010440A7800EB0210B0F80C24C2F3090268
:102E0000A0F80C24B0F80C2442F4004205E0B0F81D
:102E1000503018440B7800EB0310A0F80C2409780C
:102E200002E0C1F818A0E9B22046FDF766FE03E013
:102E300032462046FDF739FF2068B0F844100904F7
:102E40003FF53CAE0020BDE8F88F704717B583B062
:102E50006424012305AA8DE81C000A464221FDF7DF
:102E6000C5FC06B010BD7047FDF790BD30B593B0FE
:102E700028216846FDF7E7F914210AA8FDF7E3F9D0
:102E8000002401200F9410941194010412948DE8F1
:102E9000130004904FF4E010CDE9081002250795C7
:102EA0006846FEF7F9FB08B172B6FEE70F20CDE9E0
:102EB0000A054FF48060CDE90C4002210AA80E9467
:102EC000FEF70EFB08B172B6FEE710200F901294C9
:102ED0000FA8FEF78FFA002801D072B6FEE713B0F4
:102EE00030BD70470148FFF759B80000F4010020D9
:102EF000F0B50268194B1A4C1A4D4FF080479842B2
:102F000005D0B84203D0A04201D0A84203D122F09C
:102F100070064A683243984205D0B84203D0A042B6
:102F200001D0A84203D122F44074CA6822434C69FC
:102F300022F08002224302608A68C2620A688262CA
:102F4000984201D109690163012141610169C90701
:102F500003D0016921F001010161F0BD002C0140A5
:102F6000000400400008004010B501F01F030121DB
:102F7000046A99408C430462016A9A4011430162D9
:102F800010BD10B501F00F030421046A99408C4371
:102F90000462016A9A401143016210BD10B5846851
:102FA00042EA032224F47F440A432243826010BD94
:102FB000826822F070020A4342F007018160704784
:102FC00030B5036A026A22F0010202624268846933
:102FD00024F073050C682C4323F002058B682B4307
:102FE0000A4DA8420BD123F00805CB6822F44072A9
:102FF0002B434D6923F0040315438A692A43426039
:10300000846149684163036230BD0000002C0140C7
:1030100030B5026A036A23F01003036243688469CF
:103020000D6824F4E64444EA05248D6822F0200269
:1030300042EA05120B4DA8420ED1CD6822F0800263
:1030400042EA05124D6923F4406343EA85038D6922
:1030500022F0400243EA850343608461496881634A
:10306000026230BD002C014030B5036A026A22F4CE
:10307000807202624268C46923F4007324F073050D
:103080000C682C438D6843EA05230C4DA8420ED1F1
:10309000CD6823F4006343EA05234D6922F44052CE
:1030A00042EA05128D6923F4806342EA0512426008
:1030B000C4614968C163036230BD0000002C014057
:1030C00030B5046A026A22F4805202624268C3691F
:1030D0000D6823F4E64343EA05238D6824F4005485
:1030E00044EA0534064DA84204D14D6922F48042D9
:1030F00042EA85124260C36149680164046230BDDE
:10310000002C014010B5036A046A24F00104046233
:10311000846924F0F00444EA021423F00A020A430A
:103120008461026210BD000070B5056A046A24F073
:103130000104046284690F4EB04208D0B0F1804FA0
:1031400005D00D4EB04202D00C4EB04203D124F057
:103150000304144301E044F001041A0724F0F004CE
:1031600044EA126225F00A0301F00A011943826160
:10317000016270BD002C01400004004000080040C6
:1031800010B5036A046A24F010040462846923F011
:10319000A00324F4704444EA023243EA011182613C
:1031A000016210BD30B5046A056A25F0100505629C
:1031B000856925F4407545EA022222F470454FF6F0
:1031C000FF7202EA033224F0A0032A43A02404EA97
:1031D000011119438261016230BD01680C3151E86F
:1031E000002F22F4907241E80023002BF5D10168F2
:1031F000143151E8002F22F0010241E80023002B96
:10320000F5D1016B012909D101680C3151E8002F7A
:1032100022F0100241E80023002BF5D1202180F894
:10322000421000210163704770B5044600680169CF
:10323000E26821F44051114301612169A06808430B
:10324000616908432168CA6841F20C639A430243EA
:10325000CA6020684169A26921F44071114341614B
:103260001E492068884202D1FEF7E0F901E0FEF72E
:10327000CDF900EBC00101EB001260686421800011
:10328000B2FBF0F3B3FBF1F36FF018067343B2FB3C
:10329000F0F5B2FBF0F605EB8305322303EB0515E1
:1032A000B5FBF1F5B6FBF1F605F0F00505EB0615FB
:1032B000B2FBF0F6B2FBF0F0B0FBF1F06FF01802E9
:1032C000504306EB800003EB0010B0FBF1F02168E7
:1032D00000F00F002844886070BD000000380140F5
:1032E0002DE9F843984617460D460446089E24E00B
:1032F000701C22D0FDF7B0F9A0EB0800B0421AD83C
:10330000CEB12068C168490717D5802D15D0402D52
:1033100013D00168C94309070FD40168002540682C
:1033200000902046FFF759FF0820606484F8405061
:103330000120BDE8F8830320FBE72068006835EA38
:10334000000004D00020B842D2D00020F1E70120D4
:10335000F9E7D0F8B802002101750846704770B54A
:103360000546D0F8B842D5F8BC226178D2682078FA
:103370009047022322460121284600F07EFB0020D0
:1033800070BD70B50446812100F076FA0025012158
:103390002046E56200F070FAC4F86C51D4F8B80227
:1033A00048B1D4F8BC0204F52E74806880472068C8
:1033B00000F0CDFD2560002070BD10B5D0F8B842FA
:1033C0002169012908D1D0F8BC0223786178C2684C
:1033D0001846904700202061002010BD0A2101807E
:1033E000004870474C0100202921018000487047A7
:1033F000BC0000202921018000487047E80000201F
:1034000029210180004870471401002070B504464E
:10341000002602230322812100F023FB0125022341
:10342000032229462046E56200F01BFB1820C4F861
:103430006C5100F08DFDC4F8B80270B10546002053
:103440002875D4F8BC024068804702232A4601212F
:10345000204600F012FB304670BD0126FBE7024615
:103460000220002902D00020C2F8BC1270470000E0
:10347000F8B50022D0F8B832ADF800200E78154625
:10348000144616F0600621D0202E55D14A78921E9F
:103490000A2A51D2DFE802F00F0850505050501362
:1034A0000B05887858604AE00122191D35E04888EC
:1034B000000A986043E0012203F108012DE0012297
:1034C0001A61CA88194600F063F838E04E7836B1C0
:1034D000062E0BD00A2E23D00B2E2DD128E090F8EB
:1034E0009C22032A28D10222694616E04B88222614
:1034F000B6EB132F07D1CA88022A00D90222D0F8CE
:10350000BC120D6808E02126B6EB132F04D1CA883F
:103510000D4D092A00D90922294600F053F80EE082
:1035200090F89C22032A07D1012203F10C01F4E751
:1035300090F89C22032A04D000F01FF802242046B1
:10354000F8BD8878D860FAE74001002010B5D0F8BF
:10355000B42252689047002010BD134610B50A46A9
:10356000002100F08AFA002010BD134610B50A466B
:10357000002100F01DFB002010BD10B50446802185
:1035800000F0FBFA2046BDE81040002100F0F5BA3B
:1035900010B50323C0F85C21C0F89432C0F8602154
:1035A00013460A46002100F068FA002010BD10B54D
:1035B00005210023C0F894121A46194600F05DFA5E
:1035C000002010BD10B50223C261C0F8943202621F
:1035D00013460A46002100F0EBFA002010BD10B59A
:1035E00004210023C0F894121A46194600F0E0FAAC
:1035F000002010BD10B50A46024903A000F0EEF805
:10360000004810BD48050020437573746F6D204855
:10361000494420436F6E66696700000012200880ED
:10362000004870473C00002010B50A46024903A03C
:1036300000F0D4F8004810BD4805002043757374AD
:103640006F6D2048494420496E74657266616365F8
:103650000000000004200880004870473800002067
:1036600010B50A46024903A000F0B8F8004810BDA2
:103670004805002053544D6963726F656C6563742F
:10368000726F6E696373000010B50A46024903A0A9
:1036900000F0A4F8004810BD4805002053544D33F5
:1036A0003220437573746F6D2048756D616E2069AB
:1036B0006E746572666163650000000010B51A20C3
:1036C00008800A480168001D0468001D0068081889
:1036D00009D008220649FEF7FDFF054904221031F2
:1036E0002046FEF7F7FF0248801E10BDE8F7FF1FD7
:1036F00052000020F8B504460020ADF800004888CC
:103700000D46010A082948D2DFE801F047040917ED
:1037100047473C45D4F8B012207C0A6819E0207C69
:1037200002260028D4F8B40205D0C16A684688474A
:10373000014646703EE0816AF8E7C0B206282CD206
:10374000DFE800F0030A1014181CD4F8B002426835
:1037500005E0694690471CE0D4F8B0028268E2B107
:10376000207CF6E7D4F8B002C268F8E7D4F8B002DB
:103770000269F4E7D4F8B0024269F0E7D4F8B00285
:103780008269ECE7207C40B9D4F8B402416B68460A
:10379000884701460EE0207C20B129462046FFF7ED
:1037A000ECFEF8BDD4F8B402016B684688470146C8
:1037B00007204870BDF8000048B1EA8852B1824243
:1037C00000D90246ADF800202046FFF7FBFEE8884E
:1037D0000028E6D12046FFF702FFF8BD70B50023B0
:1037E00000281ED00446002502E06D1CEDB2641CCA
:1037F0002678002EF9D1022404EB450414801278B7
:10380000CA545B1C0322CA5400245B1C06E0CA5441
:103810005B1CDAB28C54521CD3B2401C0278002AD2
:10382000F5D170BD01004FF0000004D0012901D096
:10383000022901D0022070470120704710B580B1E5
:10384000D0F8B43213B10023C0F8B43209B1C0F8D3
:10385000B012012180F89C12027000F0BBF8002029
:1038600010BD022010BD10B5D0F8C002FDF77DF9E3
:10387000BDE81040FFF7D6BF10B5D0F8C002FDF785
:103880004FF9BDE81040FFF7CDBF2DE9F0411746D5
:10389000044651B1D4F8B40242691AB194F89C02BA
:1038A000032851D00220BDE8F081D4F894320025DD
:1038B00004F11400022B03D0042B3AD0C3B33CE034
:1038C000D0E903639E4207D9F11AC1608AB2394632
:1038D0002046FFF74AFE12E08068B0FBF3F103FBDD
:1038E000110199B9984211D3D4F8981288420DD297
:1038F000002211462046FFF738FEC4F898520023F4
:103900001A461946204600F0B8F816E0D4F8B4027A
:10391000C16829B194F89C02032801D12046884748
:103920008021204600F029F92046FFF740FE04E000
:10393000FFE78021204600F020F994F8A00201283A
:1039400004D184F8A05201E0204690470020AAE765
:1039500070B51546044649B1D4F8B40282691AB16B
:1039600094F89C02032830D0022070BDD4F8941241
:1039700004F5AA70032902D005291ED027E0D0E95A
:1039800003218A420BD9531AC3600846834200D3ED
:1039900003469AB229462046FFF7DFFD17E0D4F828
:1039A000B402016929B194F89C02032801D1204690
:1039B00088472046FFF713FE09E000200146C4F8BF
:1039C0009402204600F0D9F801E0204690470020FC
:1039D00070BD000010B519490446C1F8D402C0F802
:1039E000C012174808600820087102208871002062
:1039F0008872C87208730846FDF720FC08B1FCF70E
:103A00008EFC0022D4F8C0021823114604F530744D
:103A1000FDF754F85823002280212068FDF74EF866
:103A20009823002281212068FDF748F8D82300223E
:103A300001212068FDF742F8002010BD6407002036
:103A4000005C00400A0601F07F01D0F8C00201EBE3
:103A5000810100EBC10001D5807C704790F85201D4
:103A6000704710B51C461346D0F8C0022246FDF739
:103A7000B8FABDE81040FFF7D5BE10B5D0F8C002C7
:103A8000FDF7DBFABDE81040FFF7CCBE70B50022B1
:103A9000044640231146FFF7E4FF40260125C4F801
:103AA00064613346002280212046C4F85851FFF754
:103AB000D8FF6662A56184F89C520020C4F8940285
:103AC0006060C4F8A402D4F8B80228B1D4F8B402F3
:103AD0000021426820469047002070BD90F89C125B
:103AE000042903D190F89D1280F89C1200207047A1
:103AF00010B590F89C12032904D1D0F8B412C9690A
:103B000001B18847002010BD01740020704710B536
:103B1000D0F8C002FDF729FCBDE81040FFF782BED7
:103B200070B5044600F52A70054600F04AF80120F9
:103B3000C4F89402B4F8AE02C4F8980294F8A8024B
:103B400010F01F010AD001290DD0022910D000F079
:103B50008001204600F011F8002070BD2946204663
:103B600000F09DF8F8E72946204600F0C9F9F3E790
:103B70002946204600F01CF9EEE710B5D0F8C00247
:103B8000FDF772FABDE81040FFF74CBE10B5D0F853
:103B9000C002FDF704FCBDE81040FFF743BE90F8FB
:103BA0009C1280F89D12042180F89C12002070471E
:103BB00010B5D0F8C002FDF78FFABDE81040FFF74E
:103BC00031BE0A7802704A7842708A78CB7802EB6C
:103BD000032242800A794B7902EB032282808A79A0
:103BE000C97902EB0121C18070470246002011B162
:103BF000C2F8B41270470220704710B5D0F8B42252
:103C000002241AB11268904700B90024204610BD62
:103C100070B50E461E4D897804462970012931D8A9
:103C200094F89C0202280BD003280FD0314620467E
:103C3000FFF7A3FC29782046BDE87040FFF786BC5B
:103C4000D9B10320616084F89C0209E071B1606819
:103C5000884212D0C1B22046FFF778FC2978616013
:103C60002046FFF7CAFF02280CD006E0022084F8A5
:103C70009C0220466160FFF769FC2046BDE8704069
:103C8000FFF7ADBC31462046BDE87040FFF775BC7C
:103C90008000002010B5FFF779FF002010BD2DE94E
:103CA000F0410A78002612F0600208D0202A01D0E4
:103CB000402A70D1D0F8B422926890476DE04B78DA
:103CC000002201250A2B66D2DFE803F0405D65572C
:103CD000650805652C29FFF70DFD5EE00446888820
:103CE000D8B9C888C8B94888802816D200F07F079C
:103CF00094F89C02032810D084F89E72394620461E
:103D0000FFF705FF2046FFF76AFC1FB1022084F889
:103D10009C0242E084F89C523FE020463BE0FFF7E3
:103D200077FF3AE0CB88012B35D190F89C32012BFC
:103D300004D0022B02D0032B2DD104E0826001229B
:103D400000F1080116E00122011D13E090F89C2209
:103D5000012A03D0022A01D0032A1CD1CA88022AD0
:103D600019D1C560D0F8A41209B10321C1600222A3
:103D700000F10C01FFF726FC0FE0498801290CD166
:103D8000C0F8A45211E090F89C32012B08D0022B0D
:103D900006D0032B04D0FFF7F0FB3046BDE8F081DE
:103DA00049880129F9D1C0F8A422FFF718FCF4E7EB
:103DB0002DE9F0410A46044610780027097910F0F1
:103DC00060030AD0202B01D0402B50D1D4F8B4028C
:103DD00011468368204698478FE0C0F341100128C0
:103DE00006D05078D0B301282AD003283FD107E06D
:103DF000D4F8B402114683682046BDE8F041184764
:103E000094F89C02022802D0032872D10AE071B310
:103E100080296ED02046FFF7B0FE80212046FFF7B4
:103E2000ACFE6AE0508838B931B1802904D0D0881E
:103E300010B92046FFF7A1FE2046FFF7D0FB5CE05B
:103E400094F89C020228E2D0032852D1508898BBF3
:103E50004806F1D02046FFF706FDEDE7FFE794F8AE
:103E60009C020026022803D0032842D112E040E041
:103E700009B180293DD1080601F07F0000EB8000E8
:103E800004EB800101D5143101E001F5AA71022291
:103E90000E602AE0080601F00F0000EB800004EB42
:103EA00080000AD5806920B301F07F0000EB80001C
:103EB00004EB800514350BE01FE0D0F85801C0B1C9
:103EC00001F07F0000EB800004EB800505F5AA758A
:103ED00041B1802906D02046FFF7B4FD10B1012082
:103EE000286000E02E60022229462046FFF76AFB88
:103EF00003E011462046FFF740FB3846BDE8F0815D
:103F000070B5054608780C4610F0600003D02028F4
:103F100001D0402816D195F89C02012803D0022830
:103F200001D003280ED1207901280BD8D5F8B4028E
:103F3000826828469047E188014306D12846FFF76A
:103F40004EFB02E02846FFF718FB002070BD7047CB
:103F500000487047480700202DE9F0470C780026FC
:103F600030F8243048F68F121340CA78002A78D0EF
:103F7000012A7CD0022A02D0032A75D0012648F2F9
:103F80008002134320F824300D7830F8253048F6AD
:103F90008F7423402B43134320F825300D7B48F2C8
:103FA000C00948F6BF734CF2800A4BF68F77EDB329
:103FB000CD7891F800C0022D30F82C507DD048F615
:103FC0008F6805EA0805154320F82C50B0F85050CA
:103FD00091F800C0054405EB0C15B1F808C02CF0B1
:103FE000010CA5F800C4B0F8505091F800C0054489
:103FF00005EB0C15B1F80AC02CF0010CA5F808C4AB
:104000004D78002D7ED00D7830F825C05FEA4C4CFD
:1040100007D530F825C00CEA040C4CEA0A0C20F84D
:1040200025C091F800C030F82C5000E022E06D0669
:1040300006D530F82C50254045EA090520F82C50CB
:10404000CC780D78012C30F8254004EA03047CD0AC
:1040500084F02003134320F82530C1E001E006E09E
:1040600002E043F400738AE743F4C06387E743F454
:10407000806384E74D784DB3B0F850500F78054415
:1040800005EB0715CF8827F00107A5F800740F7816
:1040900030F827506D0606D530F82750254045EA00
:1040A000090520F82750CC78012C07D00C7830F87F
:1040B0002410194081F0200104E064E00C7830F80D
:1040C00024101940114320F8241090E0B0F850302B
:1040D0000D78034403EB0513CD8825F00105A3F803
:1040E0000854B0F850300D78034403EB0513B3F8CF
:1040F0000C54C5F30905A3F80C540D6903F20C43E5
:104100003E2D00E045E00BD94FEA551CED0601D1EC
:10411000ACF1010C1D884FF4004848EA8C2C0BE0F0
:1041200035B34FEA550CED0701D00CF1010C1D8899
:104130004FF6FF7808EA8C2C45EA0C051D800D78B7
:1041400030F825305B0408D500E046E030F8253033
:10415000234043EA0A0320F82530097861B130F89A
:1041600021303B4083F40053134320F821303EE0DC
:104170001D8845F40045E1E70188394081F440514C
:104180001143018033E0254048F2801845EA0805D4
:104190001AE791F800C030F82C506D0406D530F8BD
:1041A0002C50254045EA0A0520F82C5091F800C013
:1041B00030F82C506D0606D530F82C50254045EAD5
:1041C000090520F82C500D7830F825403C4084F447
:1041D0004054144320F8254070E7144320F825404C
:1041E0000B7830F823103940114320F82310304663
:1041F000BDE8F087002070472DE9F04391F80C806E
:104200004F780A7848F6BF7C4BF68F7948F28003E6
:1042100048F2C0054CF2800648F68F74B8F1000FE2
:1042200028D0002F30F822704FEA474748D0002F9F
:1042300005DA30F822702740374320F822700A78D8
:1042400030F822707F0605D530F8227027402F43C2
:1042500020F822700D7830F825202240324320F8D3
:1042600025200C7830F8242002EA0C021A4320F8AA
:1042700024201AE07FB130F82260760605D530F8A8
:10428000226026402E4320F822600A7830F822105F
:1042900001EA0C010EE030F822506D0405D530F82B
:1042A00022502540354320F822500A7830F8221059
:1042B00001EA0901194320F822100020BDE8F0832B
:1042C000002F05DA30F822702740374320F822709B
:1042D0000A7830F82260760605D530F8226026404C
:1042E0002E4320F822600E7830F8262022402A4300
:1042F00020F826200C7830F8242002EA09021A431C
:1043000020F82420C1E700207047002070470121D9
:1043100020F8401F002101808180018208467047FB
:1043200030F8401F21F43F410180002070470020F9
:10433000704730B50A7BB2BB4A7848F68F7548F2B1
:104340008004C2B10B7830F82320520607D530F82C
:1043500023202A4048F2C0052A4320F82320CA78A7
:10436000012A20D00A7830F8221048F6BF7319408D
:1043700081F0200114E00A7830F822305B0407D580
:1043800030F822302B404CF280052B4320F82230AD
:104390000A7830F822104BF68F73194081F440519F
:1043A000214320F82210002030BD10B54A7809784A
:1043B000002A48F2800330F8212005D048F6BF7467
:1043C000224082F0100204E04BF68F74224082F407
:1043D00080521A4320F82120002010BD2DE9F0471B
:1043E0000D464B78097B04464FF0000948F68F7262
:1043F00048F2800A4FF400474FF6FF78012B09D0AE
:1044000000296FD0E87802286DD001286CD00120F7
:10441000BDE8F087AE692869864200D9064691B1A9
:10442000E97802291ED0286A801B2862287834F88F
:1044300020104906B4F85010214401EB001073D548
:10444000A0F80C6416E1B3B2EA882046696900F06E
:1044500067FAB4F850002978204400EB0110A0F866
:1044600004640DE1296A814277D9297834F8210062
:10447000104048F28012104324F82100286A801B63
:104480002862287834F820104906697871D511B16E
:1044900001292AD030E0B4F85010214401EB00107B
:1044A000B0F80C14C1F30901A0F80C1400F20C4090
:1044B0003E2E07D97109F20600D1491E028847EA4B
:1044C000812107E04EB17108F20700D0491C028833
:1044D00008EA81210A4302800EE0018841F400418C
:1044E000018009E0F1E020E195E1B4F850201119D4
:1044F00001EB0010A0F80C646A89B3B22046696928
:1045000000F00EFA6869304468612969286A8842B7
:1045100002D9801B286202E00646C5F82090687820
:1045200018B101282BD032E02FE0B4F850002978E0
:10453000204400EB0110B0F80414C1F30901A0F805
:10454000041400F204403E2E08D97109F20600D18D
:10455000491E028847EA812108E0A1E056B17108AE
:10456000F20700D0491C028808EA81210A43028030
:104570000DE00EE0018841F40041018007E0B4F84D
:1045800050002978204400EB0110A0F804642A8927
:1045900071E011B1012927D02DE0B4F85010214469
:1045A00001EB0010B0F80414C1F30901A0F80414E1
:1045B00000F204403E2E07D97109F20600D1491ECF
:1045C000028847EA812107E04EB17108F20700D066
:1045D000491C028808EA81210A4302800BE0018815
:1045E00041F40041018006E0B4F85010214401EB91
:1045F0000010A0F804642A89B3B22046696900F06B
:104600008FF96869304468612969286A884202D94B
:10461000801B286202E00646C5F82090687810B139
:10462000012836D026E0B4F850002978204400EB69
:104630000110B0F80C14C1F30901A0F80C1400F239
:104640000C403E2E07D97109F20600D1491E02889E
:1046500047EA812107E04EB17108F20700D0491CFA
:10466000028808EA81210A43028003E0018841F4BC
:10467000004101806A89B3B22046696900F050F9AF
:10468000297834F8210048F6BF72104080F03000DD
:104690000FE1B4F850100819297800EB0110CFE6AB
:1046A0002A7834F8220048F68F63184040EA0A005E
:1046B00024F82200B4F850002A78204400EB0210BD
:1046C0008BB2A0F804342A89D6E7A9692869814207
:1046D00002D9091AA96102E00846C5F81890B4F891
:1046E00050102A78214401EB0211B1F80C24C2F3D6
:1046F0000902A1F80C2401F20C413E287DD942099F
:10470000C00600D1521E088847EA82220AE00888C3
:1047100040F4004007E04208C00700D0521C08885F
:1047200008EA822210430880BBE033BBB4F8500093
:104730002978204400EB0110B0F80414C1F30901FA
:10474000A0F80414296900F204403E2907D94B0956
:10475000C90600D15B1E018847EA832307E041B107
:104760004B08C90700D05B1C018808EA8323194362
:1047700002E0018841F400410180687810B101280D
:1047800028D030E0B4F850002978204400EB011024
:10479000B0F80C14C1F30901A0F80C14296900F257
:1047A0000C403E2907D94B09C90600D15B1E018880
:1047B00047EA832307E041B14B08C90700D05B1CDF
:1047C000018808EA8323194302E0018841F400418B
:1047D000018008E0B4F850100819297800EB0110A6
:1047E000298AA0F80C14E869C0B3297834F82100AC
:1047F000430401D5430605D400E046E044F24003FB
:1048000018424ED134F82100104048F2C002104343
:1048100024F8210045E0A9692869814202D9091AD2
:10482000A96102E00846C5F8189013BBB4F850100F
:104830002A78214401EB0211B1F80424C2F30902E1
:10484000A1F8042401F204413E2808D94209C30614
:1048500000D1521E0B8847EA822208E021E078B19D
:104860004208C30700D0521C0B8808EA8222134377
:104870000B80697800293FF42EAF012909D010E0A0
:104880000A8842F400420A80F3E700287FF443AF2D
:104890003DE7B4F8502011192A7801EB0211A1F874
:1048A0000C04297834F821004BF68F72104080F404
:1048B000405040EA0A0024F821000020A8E5002129
:1048C000A0F844104FF43F41A0F84010002070477A
:1048D0000148FCF719BC000064070020B0F8440050
:1048E0007047000010B500EB42005C0800F58060E6
:1048F00009D000BF30F8042B01F8012B120A01F88F
:10490000012B641EF6D1DA0701D00088087010BDB3
:104910000020704711B98021A0F84C10002070478A
:1049200010B55B1C00EB42005B0800F5806009D00D
:1049300011F8012B11F8014B42EA042220F8042B54
:104940005B1EF5D110BDFEE70907090E002804DB48
:1049500000F1E02080F80014704700F00F0000F133
:10496000E02080F8141D7047CCB0FCF717F8FEF774
:104970007DFAFDF7CBFEFEF701F8FEF71BF8FDF719
:104980000FFFFDF799FFFDF72BFF04212F48FDF7DF
:1049900093FA04212E48FDF783F808212C48FDF7EF
:1049A0007FF82C48FEF732F8FBF7BCFCDFF8A88054
:1049B0004FF0FF39444608212046FBF743FE00280C
:1049C000F9D008212046FBF73DFE0128F9D0FBF77E
:1049D00005FD4FF496716846FBF735FC0026354619
:1049E0005FF00004FBF7C2FCC7B2FBF7BFFCC0B22C
:1049F00040EA072000F040F8A4F12801502906D22F
:104A00001E2D04D35A2D02D2322800D80126641C50
:104A1000A02CE7D36D1C782DE2D34EB10FA4204615
:104A2000FBF7F2FB82B24B4621461148FDF798FC9A
:104A30004B4601220F490E48FDF792FC0D4900201C
:104A400008700A20FBF7FCFCB4E70000F40100202A
:104A5000AC01002058010020000C0140426C616351
:104A60006B2064657465637465640D0A0000000062
:104A70003C02002000000020C0F34512C106C30A1A
:104A80009200D800090E4D23C2EB0212584302EBEC
:104A9000820200EB420001EB4102C2EB41110844EB
:104AA000C0F307207047C10AC0F3451240F27523D6
:104AB000594302EB420300F01F0003EB021201EB2B
:104AC0004211C0EB001001EB0010C0F3072070474B
:104AD000010202030405060708090A0B0C0D0E0F5C
:104AE000101000000000000000000102030406078F
:104AF0000809000000000102030400001C4B00082C
:104B0000000000205801000028010008C44B0008E4
:104B100058010020480F000084010008C1320182C2
:104B20001013127A131D361B0855041A61041A89D2
:104B3000041ABD0413F5351B0829081704030904DA
:104B4000120132021640830450571D020102034134
:104B5000031B1A0322C0226C142015031B08110426
:104B60001A190441130D34140883331B08710841CA
:104B70001ABB0C1A53041A5F04C11AF5101AE9047F
:104B80001A01281ADD081409022913010125C0326F
:104B900009042A02791509211101140122021607BC
:104BA000058103022D0107050107291A091E2C4A58
:104BB000052C0A22052CA958691A31130A0629085E
:044BC0002A4018006F
:04000005080000ED02
:00000001FF
