:020000040800F2
:100000004807002099010008A1010008A301000889
:10001000A5010008A7010008A901000800000000D0
:10002000000000000000000000000000AB0100081C
:10003000AD01000800000000AF010008B101000898
:10004000B3010008B3010008B3010008B3010008C0
:10005000B3010008B3010008D1040008B30100088F
:10006000B3010008E1040008F1040008B30100082E
:10007000B3010008B3010008B3010008B301000890
:10008000B3010008B3010008B3010008B301000880
:10009000B3010008B3010008B301000849050008D6
:1000A000B3010008B3010008B3010008B301000860
:1000B000B3010008B301000831110008B3010008C2
:1000C000B3010008B3010008B3010008B301000840
:1000D000B301000899110008B3010008B30100083A
:1000E000B3010008B3010008B301000800F002F8F2
:1000F00000F042F80AA090E8000C82448344AAF180
:100100000107DA4501D100F037F8AFF2090EBAE87D
:100110000F0013F0010F18BFFB1A43F0010318473B
:100120007816000098160000103A24BF78C878C1ED
:10013000FAD8520724BF30C830C144BF04680C60ED
:10014000704700000023002400250026103A28BF35
:1001500078C1FBD8520728BF30C148BF0B60704739
:10016000642900F0A580632900F0458100207047D4
:100170001FB51FBD10B510BD00F078F91146FFF78F
:10018000F7FF01F0E5F900F096F903B4FFF7F2FF8D
:1001900003BC01F016F900000948804709480047F0
:1001A000FEE7FEE7FEE7FEE7FEE7FEE7FEE7FEE727
:1001B000FEE7FEE704480549054A064B7047000084
:1001C000D1100008ED000008480100204807002079
:1001D0004803002048030020704700000FB4044982
:1001E00010B503AA029800F013F910BC5DF814FBD7
:1001F000180000202DE9F0410E4604460020206240
:100200002046E168884730B3252805D0D4E901218C
:100210009047206A401CF2E7E168204600278847A3
:10022000050018D0A5F14100192802D820354FF457
:1002300000673246294620462760FFF791FF40B10C
:10024000012804D0F61D26F007060836D8E7361D2B
:10025000D6E72846DAE7206ABDE8F08170B50C469B
:100260000546012A05D02878800600D5EA690023D2
:1002700002E0012305E05B1C934202D2E05C00280F
:10028000F9D1A869E618C01AA861286A184428623A
:100290002846AFF3008004E0D5E9012114F8010BF2
:1002A0009047B442F8D32846AFF3008070BD0000F9
:1002B0002DE9F0410646002410687529314616A53F
:1002C00010D0AFF30080002802DA404213A507E007
:1002D00031688A0701D512A502E0490704D511A5A6
:1002E000012401E0AFF3008000210A2206F1240777
:1002F00009E0B0FBF2FCB0FBF2F302FB1C00303073
:1003000078541846491C0028F3D123462A46304623
:10031000BDE8F04100F00CB8000000002D00000026
:100320002B000000200000007047704770477047A6
:100330002DE9F0470D4699469246044600F12408FF
:100340000168880604D5E06921F01001216000E011
:100350000120A84201DD471B00E00027A1697A19AE
:1003600002EB0900081AA0612078C00602D42046DA
:10037000AFF30080002608E0D4E901211AF8060056
:100380009047206A401C761C20624E45F4DB2078A2
:10039000C0060AD52046AFF3008006E0D4E901216B
:1003A00030209047206A401C2062381EA7F10107C8
:1003B000F4DC07E0D4E9012118F805009047206A31
:1003C000401C2062281EA5F10105F3DC2046AFF396
:1003D00000802078000602D50220BDE8F0870120C9
:1003E000FBE710B5436913B1AFF3008001E0FFF7FD
:1003F00035FF012010BD127800F124010A7000229F
:100400004A700122EDE711684FF0FF32E9E7000082
:10041000074B70B50D467B4400F011F804462846A2
:1004200000F020F810B14FF0FF3070BD204670BDD5
:100430001B11000001694A1C02610878704700B571
:100440008FB0CDE901310021059105497944CDE90D
:10045000031011466846FFF7CDFE0FB000BD000047
:10046000E5FFFFFF007B00F080007047754600F05D
:100470002BF8AE4605006946534620F00700854636
:1004800018B020B5FFF796FEBDE820404FF00006FB
:100490004FF000074FF000084FF0000B21F007016C
:1004A000AC46ACE8C009ACE8C009ACE8C009ACE8AF
:1004B000C0098D46704710B50446AFF30080204652
:1004C000BDE81040FFF761BE00487047E80000201B
:1004D00010B50A2000F0F2FF012000F055F810BD21
:1004E00010B50A2000F0EAFF082000F04DF810BD1A
:1004F00010B50A2000F0E2FF102000F045F810BD12
:100500000EB50821002000F0A3F84FF48070019090
:1005100000208DF8080008208DF8090001208DF8D2
:100520000A0001A800F04AF817208DF8000000200A
:100530008DF801008DF8020001208DF80300684657
:1005400000F07CF90EBD000010B54FF4807000F093
:1005500021F801280DD10020084908600120084930
:10056000C1F88001C1F8B00106480078401C054977
:1005700008704FF4807000F007F810BD80812142B0
:10058000008021421E0000200149086070470000E1
:1005900014040140014600200022074B1B6803EAB7
:1005A0000102054B14331B680B4013B10AB1012043
:1005B00000E00020704700000004014000212349B2
:1005C0008279002A3AD00A46126803689A430B4699
:1005D0001A600A1D126803689A430B1D1A6002799B
:1005E00011440A6803681A430A60184A08321268FC
:1005F00003689A43154B08331A601A1D1268036882
:100600009A43124B0C331A604279102A0ED11A1FEA
:10061000126803681A430D4B08331A601A1D1268DA
:1006200003681A43094B0C331A600DE007494279FD
:1006300011440A6803681A430A6005E0027911440C
:100640000A6803689A430A6070470000000401408A
:1006500030B500228B071C0F0F2303FA04F20B4B5B
:100660008C1053F824309343084C8D1044F82530F7
:1006700023468C1053F824308C07240F00FA04F41E
:100680002343024C8D1044F8253030BD0800014052
:100690002DE9F04102460025002600200023002419
:1006A000002791F803C00CF00F0591F803C00CF07F
:1006B000100CBCF1000F03D091F802C04CEA050504
:1006C00091F800C0BCF1000F31D0146800202BE07D
:1006D0004FF0010C0CFA00F3B1F800C00CEA03066D
:1006E0009E4220D183004FF00F0C0CFA03F7BC435D
:1006F00005FA03FC4CEA040491F803C0BCF1280F8E
:1007000006D14FF0010C0CFA00FCC2F814C00AE04C
:1007100091F803C0BCF1480F05D14FF0010C0CFA61
:1007200000FCC2F810C0401C0828D1D31460B1F8F6
:1007300000C0BCF1FF0F34DD546800202EE000F152
:10074000080C4FF0010808FA0CF3B1F800C00CEAED
:1007500003069E4221D183004FF00F0C0CFA03F7E1
:10076000BC4305FA03FC4CEA040491F803C0BCF155
:10077000280F05D100F1080C08FA0CF8C2F8148013
:1007800091F803C0BCF1480F07D100F1080C4FF0FD
:10079000010808FA0CF8C2F81080401C0828CED3D3
:1007A0005460BDE8F0810000F0B50A460023002443
:1007B0000021002500F00046B6F1004F02D11D4E89
:1007C000F16901E01B4E7168C0F3034583B200F488
:1007D0004016B6F5401F08D121F07061154E7668BD
:1007E00026F07066134F7E6012E000F48016B6F5B6
:1007F000801F06D1032606FA05F4A14341F070617B
:1008000006E0460D360103FA06F6B14341F0706189
:1008100022B1460D360103FA06F6314300F00046D8
:10082000B6F1004F02D1034EF16101E0014E71605B
:10083000F0BD0000000001400161704770B500216B
:1008400000230F22C47804B3154C246804F4E06438
:10085000C4F5E064210AC1F10403CA40447804FAF3
:1008600003F184781440214309010E4C0678A15508
:10087000047804F01F050124AC4005786D11AD002B
:1008800005F1E025C5F8004109E0047804F01F05F2
:100890000124AC40044D0678761145F8264070BD21
:1008A0000CED00E000E400E080E100E070B50446FB
:1008B000002534B1012C06D0032C06D0042C08D11D
:1008C00005E0B02505E0982503E0182501E0302576
:1008D00000BF00BF2946552000F066FB70BD2DE922
:1008E000F0410446802522265E2734B1012C08D031
:1008F000032C0AD0042C10D10BE0402511262F2701
:100900000BE066251B264B2707E099252826712733
:1009100003E0C02533268D2700BF00BF29464F20A6
:1009200000F042FB2946502000F03EFB0021512000
:1009300000F03AFB3146522000F036FB3946532096
:1009400000F032FB2946542000F02EFB9E21582057
:1009500000F02AFBBDE8F08170B50446402534B1B3
:10096000012C06D0032C06D0042C08D105E030253C
:1009700005E0382503E0502501E0602500BF00BFF9
:100980002946562000F010FB70BD2DE9F0410027EC
:10099000B846042400250026384600F0AFF820466B
:1009A000FFF79DFF2846FFF781FF3046FFF7D4FF92
:1009B000404600F0D1F84FF4A073F022B0210C2093
:1009C00000F0FFF8BDE8F08138B5002501210520D1
:1009D00000F03CF94FF48070ADF8000048208DF82D
:1009E000030003208DF8020069464048FFF750FEDF
:1009F0004FF480713D48FFF71FFF4FF48050ADF872
:100A0000000010208DF8030069463948FFF740FECA
:100A10004FF480513648FFF70FFF4FF40060ADF8F8
:100A2000000010208DF8030069463048FFF730FEC3
:100A30004FF400612D48FFF7FFFEFF20ADF80000E6
:100A400048208DF8030069462848FFF721FE4FF43F
:100A50000040ADF8000010208DF8030069462348DF
:100A6000FFF716FE4FF400412048FFF7E5FE032094
:100A7000ADF8000010208DF8030069461C48FFF710
:100A800007FE03211A48FFF7D7FE01211948FFF797
:100A90008BFE00F055F98021122000F085FA08B194
:100AA000012038BD322000F009FD0B2000F0BCF918
:100AB0000446732C01D00220F3E70A2000F0B4F9B9
:100AC0000446762C01D00220EBE700250AE00A4A12
:100AD00002EB45025178084A12F8150000F064FA5A
:100AE000681C85B2A82DF2D30020DAE70008014087
:100AF000000C014000023000481600082DE9F041CA
:100B00000446E72500260027012C06D0022C08D039
:100B1000032C0AD0042C10D10BE0E5255A265C27C3
:100B20000BE0E5255826602707E0E52584264C27BD
:100B300003E0E5259626402700BF00BF2946132085
:100B400000F032FA3146012000F02EFA3946022038
:100B500000F02AFABDE8F0812DE9F04104460425B1
:100B6000C0268027072C1DD2DFE804F01C04080CE7
:100B70001014180024258026802713E014258026D1
:100B800080270FE01425C02680270BE0142540267F
:100B9000402707E014258026C02703E01425A0265F
:100BA000402700BF00BF29463A2000F0FDF931463A
:100BB000682000F0F9F93946672000F0F5F9BDE842
:100BC000F0812DE9F04705460E469046994605EB23
:100BD00048001FFA80FA06EB490087B2B7F5447F58
:100BE00002DDA7F5447087B2032000F01DF904462A
:100BF00004F0F0040AF00301284661F39F00044367
:100C00002146032000F0D0F9C5F38701192000F038
:100C1000CBF9CAF387011A2000F0C6F9322000F0A0
:100C200003F9044604F0C00407F00701304661F3FD
:100C3000DF000443C6F3C701172000F0B5F9C7F37E
:100C4000C701182000F0B0F9BDE8F08729B1064AC5
:100C500092690243044B9A6104E0034A9269824319
:100C6000014B9A61704700000010024030B500212E
:100C70000022002400232D4D6D6805F00C0121B1E8
:100C8000042905D0082923D105E0294D056022E07B
:100C9000274D05601FE0254D6D6805F47012234D4A
:100CA0006D6805F48034022505EB92421CB9214D94
:100CB000554305600BE01D4D6D6805F400351DB111
:100CC0001C4D5543056002E0194D5543056002E097
:100CD000174D056000BF00BF144D6D6805F0F001B1
:100CE0000909154D6B5C0568DD4045600F4D6D6869
:100CF00005F4E061090A104D6B5C4568DD408560D4
:100D00000A4D6D6805F46051C90A0B4D6B5C45686E
:100D1000DD40C560054D6D6805F44041890B074D08
:100D20006B5CC568B5FBF3F5056130BD0010024092
:100D300000127A0000093D00000000201000002091
:100D400008B501210820FFF781FF4FF40060ADF8DE
:100D5000000048208DF8030003208DF8020069464A
:100D60000D48FFF795FC4FF400610B48FFF764FD59
:100D70004FF48060ADF8000010208DF80300694644
:100D80000548FFF785FC4FF480610348FFF754FDE9
:100D900000F082F808BD0000000C014010B53220C0
:100DA00000F0AAFB01200B4908600B49C1F8A8011B
:100DB000322000F0A1FB00200649091F0860322004
:100DC00000F09AFB00200449C1F8AC01322000F089
:100DD00093FB10BDAC8121420080214270B50024FC
:100DE00000F04AF8082515E0322000F085FB0120CC
:100DF0000B4908606006040E0A48D0F82C0108B1BF
:100E0000601CC4B2322000F077FB00200449086067
:100E1000681EC5B2002DE7DC00F03EF8204670BD2C
:100E2000A88121420080214270B50446002500F0CF
:100E300045F8422000F076F8642000F05DFB204683
:100E400000F070F8642000F057FB00F051F86420C7
:100E500000F052FB00F032F8432000F063F8642009
:100E600000F04AFBFFF7BAFF0546FFF797FF00F0D7
:100E70003FF8284670BD000008B54FF40060ADF89B
:100E8000000048208DF8030069460248FFF700FC87
:100E900008BD0000000C014008B54FF40060ADF83B
:100EA000000010208DF8030003208DF80200694631
:100EB0000148FFF7EDFB08BD000C014010B5012013
:100EC000094908600949C1F8A801322000F014FB63
:100ED000002005490860322000F00EFB0020034985
:100EE000C1F8A80110BD0000AC8121420080214260
:100EF00010B5002009490860322000F0FDFA0120F9
:100F00000749C1F8A801322000F0F6FA0120034990
:100F10000860322000F0F0FA10BD0000AC812142E0
:100F20000080214270B5044600261BE004F08000DA
:100F300018B101201A49086002E000201849086031
:100F40006006040E322000F0D7FA01201449091F70
:100F50000860322000F0D0FA00201249C1F8A80140
:100F6000701CC6B2082EE1DBFFF786FF322000F0CE
:100F7000C3FA01200A49091F0860322000F0BCFAB8
:100F80000848D0F82C0108B1012500E00025002018
:100F90000349091F0860FFF77FFF284670BD000066
:100FA000AC8121420080214270B505460C460026E6
:100FB000FFF784FF4220FFF7B5FF00B10126642050
:100FC00000F09AFA2846FFF7ADFF00B10126642031
:100FD00000F092FA2046FFF7A5FF00B10126FFF7C7
:100FE00087FF304670BD10B500F002F810BD00005C
:100FF0000CB50020019000903348006840F4803028
:101000003149086000BF3048006800F400300090AB
:101010000198401C0190009818B90198B0F5A06F94
:10102000F1D12948006800F4003010B1012000908F
:1010300001E0002000900098012843D12348006877
:1010400040F01000214908600846006820F00300C5
:1010500008600846006840F0020008601A484068CE
:10106000194948600846406848600846406840F4AE
:10107000806048600846406820F47C10486008465C
:10108000406840F4E81048600846006840F080700E
:10109000086000BF0C48006800F000700028F9D01C
:1010A0000948406820F00300074948600846406846
:1010B00040F00200486000BF0348406800F00C00A8
:1010C0000828F9D10CBD00000010024000200240A9
:1010D00010B51348006840F0010011490860084647
:1010E0004068104908400E494860084600680E49AB
:1010F00008400B4908600846006820F4802008601A
:101100000846406820F4FE0048604FF41F008860E5
:10111000FFF769FF4FF000600449086010BD000050
:10112000001002400000FFF8FFFFF6FE08ED00E0AF
:1011300010B50121084800F01EF838B107480178C1
:1011400007A0FFF74BF8002004490870012102486E
:1011500000F00EF810BD0000000800401F00002045
:101160006672616D653A25646670730D0A00000051
:10117000CA430282704730B5024600200023002493
:10118000158A05EA0103958905EA010413B10CB13A
:10119000012000E0002030BD10B540F225511D486F
:1011A00000F04AF810B31B4800F002F9C4B21A4824
:1011B000008800F40040C8B91748008800F4804057
:1011C00060B10A2C03D000201349088020E01248A7
:1011D000008840F400401049088019E00D2C06D129
:1011E0000D48008840F480400B49088010E00A4810
:1011F0000088C0F30D0009490C5407480088401CC2
:101200000549088008460088C72801DD00200880BD
:1012100010BD0000003801401C000020200000200C
:1012200021B1828942F40052828104E082894DF624
:10123000FF731A408281704770B502460024002374
:101240000025002040F66A16B14200D100BFC1F36C
:10125000421501F01F03012606FA03F3012D02D106
:101260009689334006E0022D02D1168A334001E010
:10127000968A33400C12012606FA04F4168834408C
:1012800013B10CB1012000E0002070BDF0B50346A1
:10129000002400260025002040F66A17B94200D13C
:1012A00000BF1846C1F3421401F01F06012707FAD8
:1012B00006F5012C01D10C3004E0022C01D11030D4
:1012C00000E014301AB107682F43076002E0076896
:1012D000AF430760F0BD00002DE9F04786B005463A
:1012E0000E460024A24600BFA1460027B08900B1E7
:1012F00000BF2F462C8A4CF6FF700440F088044350
:101300002C82AC894EF6F3100440B0883189084332
:10131000718908430443AC81AC8A4FF6FF40044016
:10132000B0890443AC8201A8FFF7A0FC1F488742A4
:1013300002D1DDF810A001E0DDF80CA0A88900F4CE
:10134000004040B10AEBCA0000EB0A1031684900C6
:10135000B0FBF1F807E00AEBCA0000EB0A103168B5
:101360008900B0FBF1F86420B8FBF0F0040120091B
:10137000642101FB1089A88900F4004040B13220AB
:1013800000EBC900B0FBF1F000F00700044308E0F7
:10139000322000EB09106421B0FBF1F000F00F00E7
:1013A00004432C8106B0BDE8F087000000380140FE
:1013B00001468888C0F308007047C1F308028280A4
:1013C0007047014600BF704770B526480078002876
:1013D00047D00020244908604FF40060234908608A
:1013E000091F0860091D086001202149C1F8840116
:1013F000C0021E49091F086001211EA0FEF7EEFE73
:10140000FE211CA0FEF7EAFE00241CE04FF4006061
:101410001649086015480C380068C5B2C814091F81
:101420000860091D086011480C380068C6B2C8146D
:10143000091F086029461048FFF7BFFF31460E48D4
:10144000FFF7BBFF641CB4F5963FDFD300200549CE
:101450000870FE2107A0FEF7C1FE012105A0FEF7DE
:10146000BDFE70BD1E000020848121421408014091
:101470000080214225630000003801404FF0E02148
:10148000096921F004014FF0E0221161C21700EB5D
:101490005272C2F3C702074B1A701946097801EB62
:1014A0004102C2EBC1114FF6FF7202EAC101024ACA
:1014B00011807047140000201600002001460D4ADC
:1014C00012884A434FF0E0235A6100229A610122B8
:1014D0001A6100BF4FF0E022106900F001021AB15A
:1014E00000F48032002AF5D000224FF0E0231A6188
:1014F0009A6170471600002001460D4A12784A434F
:101500004FF0E0235A6100229A6101221A6100BF64
:101510004FF0E022106900F001021AB100F48032AD
:10152000002AF5D000224FF0E0231A619A6170473B
:101530001400002000BF054A128802F04002002A71
:10154000F9D0C2B2014B1B1D1A8070470038014010
:10155000FFF7BEFD4820FFF791FF4FF4E13000F0A8
:1015600023F802E00AA0FEF739FEFFF72DFA002863
:10157000F8D140F2DC50FFF7A1FFFEF7C1FFFFF703
:1015800004FA00200749086001E0FFF71DFFFCE7AF
:101590004F563736373020696E6974206661696C42
:1015A00065640000BC01214210B586B004460121EB
:1015B00044F20400FFF74AFB4FF40070ADF814004A
:1015C00003208DF8160018208DF8170005A91C4877
:1015D000FFF75EF84FF48060ADF8140004208DF83A
:1015E000170005A91648FFF753F825208DF80000CD
:1015F00003208DF801008DF8020001208DF8030012
:101600006846FFF71BF901940020ADF80800ADF81B
:101610000A00ADF80C00ADF810000C20ADF80E007B
:1016200001A90848FFF758FE012240F2255105485C
:10163000FFF72CFE01210348FFF7F2FD06B010BDB5
:1016400000080140003801403A0440D012143280B2
:101650001716180419021A7B03060C0015003E0029
:10166000703A713572117300A20211007A207B1C4E
:101670007C287D3C7E557F68807681808288838F40
:10168000849685A386AF87C488D789E813E00000D5
:1016900010000D001428A505AB072475256326A5A9
:1016A0009F78A068A103A6DFA7DFA8F0A990AA945D
:1016B00013E50E610F4B16021E2721022291290706
:1016C000330B350B371D3871392A3C784D404E208D
:1016D00069006B6074198D4F8E008F00900091002F
:1016E000920096009A80B084B10CB20EB382B80A10
:1016F000431444F0453446584728483A59885A8894
:101700005B445C675D495E0E640465206605940475
:1017100095086C0A6D554F80508051005222535EDF
:10172000548009036E116F9F5500564057406A4020
:101730000140024013E71500589E41083F0075051F
:1017400076E14C0077013DC24B09C9604138341144
:101750003B02A48996009730982099309A849B295F
:101760009C039D4C9E3F78047901C8F0790FC80016
:101770007910C87E790AC880790BC801790CC80F26
:10178000790DC8207909C8807902C8C07903C8409A
:101790007905C83079260900B81700080000002034
:1017A0002000000028010008D817000820000020B1
:1017B00028070000440100080000000001020304A3
:1017C00001020304060708090204060800000000DD
:0817D000000000000000000011
:04000005080000ED02
:00000001FF
